:100000000C9463000C948B000C948B000C948B006C
:100010000C948B000C948B000C948B000C948B0034
:100020000C948B000C948B000C948B000C948B0024
:100030000C948B000C948B000C948B000C948B0014
:100040000C94FC040C948B000C946C050C944605E9
:100050000C948B000C948B000C948B000C948B00F4
:100060000C948B000C948B000000000024002700EF
:100070002A0000000000250028002B0000000000DE
:1000800023002600290004040404040404040202DA
:100090000202020203030303030301020408102007
:1000A0004080010204081020010204081020000012
:1000B0000008000201000003040700000000000027
:1000C00000007906A80B11241FBECFEFD8E0DEBFD9
:1000D000CDBF11E0A0E0B1E0E4E6F0E202C005909F
:1000E0000D92A43EB107D9F723E0A4EEB1E001C020
:1000F0001D92AC3BB207E1F710E0C2E6D0E004C0CD
:100100002197FE010E944F0DC136D107C9F70E9409
:1001100018090C9425100C9400001F93CF93DF93C3
:10012000182FC091EE01D091EF018A3041F4E8819F
:10013000F9810190F081E02D6DE0CE010995E88113
:10014000F9810190F081E02D612FCE01099521E028
:1001500030E0019711F430E020E0C901DF91CF9148
:100160001F910895CF93DF93C091EE01D091EF01DD
:10017000E881F9810084F185E02DCE010995892B74
:10018000B9F3E881F9810284F385E02DCE01DF9196
:10019000CF910994833081F028F4813099F0823036
:1001A000A9F008958730A9F08830C9F08430B1F4FF
:1001B000809180008F7D03C0809180008F77809335
:1001C0008000089584B58F7784BD089584B58F7DB0
:1001D000FBCF8091B0008F778093B000089580911D
:1001E000B0008F7DF9CFCF93DF93282F30E0F90156
:1001F000E255FF4F8491F901E656FF4FD491F90182
:10020000EA57FF4FC491CC23A1F081110E94CA008C
:10021000EC2FF0E0EE0FFF1FE458FF4FA591B491D3
:10022000EC91ED2381E090E009F480E0DF91CF9143
:10023000089580E090E0FACF1F93CF93DF93282FAB
:1002400030E0F901E255FF4F8491F901E656FF4F86
:10025000D491F901EA57FF4FC491CC23A9F0162F8E
:1002600081110E94CA00EC2FF0E0EE0FFF1FEE5844
:10027000FF4FA591B4918FB7F894EC91111108C07C
:10028000D095DE23DC938FBFDF91CF911F9108952E
:10029000DE2BF8CFCF93DF9390E0FC01E656FF4FC3
:1002A00024918A579F4FFC0184918823D1F090E0DC
:1002B000880F991FFC01E859FF4FA591B491FC01EB
:1002C000EE58FF4FC591D491623071F49FB7F89406
:1002D0003C91822F809583238C93E8812E2B288359
:1002E0009FBFDF91CF9108958FB7F894EC912E2B9B
:1002F0002C938FBFF6CF3FB7F8948091EA0190918D
:10030000EB01A091EC01B091ED0126B5A89B05C0D1
:100310002F3F19F00196A11DB11D3FBFBA2FA92F84
:10032000982F8827BC01CD01620F711D811D911D81
:1003300042E0660F771F881F991F4A95D1F70895ED
:100340002FB7F8946091E6017091E7018091E80180
:100350009091E9012FBF0895DC01ED91FC9101908E
:10036000F081E02D0994AF92BF92CF92DF92EF928D
:10037000FF920F931F93CF93DF936C017B018B014F
:10038000040F151FEB015E01AE18BF08C017D1079F
:1003900059F06991D601ED91FC910190F081E02D29
:1003A000C6010995892B79F7C501DF91CF911F917E
:1003B0000F91FF90EF90DF90CF90BF90AF90089596
:1003C000FC01538D448D252F30E0842F90E0821B5B
:1003D000930B541710F0CF96089501970895FC01E0
:1003E000918D828D981761F0A28DAE0FBF2FB11D38
:1003F0005D968C91928D9F5F9F73928F90E0089590
:100400008FEF9FEF0895FC01918D828D981731F049
:10041000828DE80FF11D858D90E008958FEF9FEF9D
:100420000895FC01918D228D892F90E0805C9F4F73
:10043000821B91098F739927089582EF91E00E94A2
:10044000110221E0892B09F420E0822F089580E039
:1004500090E0892B29F00E941D0281110C9400006C
:100460000895FC01A48DA80FB92FB11DA35ABF4F49
:100470002C91848D90E001968F739927848FA689A3
:10048000B7892C93A089B1898C91837080648C93F7
:10049000938D848D981306C00288F389E02D8081A6
:1004A0008F7D80830895EF92FF920F931F93CF93D8
:1004B000DF93EC0181E0888F9B8D8C8D98131AC09F
:1004C000E889F989808185FF15C09FB7F894EE8986
:1004D000FF896083E889F9898081837080648083E3
:1004E0009FBF81E090E0DF91CF911F910F91FF902E
:1004F000EF900895F62E0B8D10E00F5F1F4F0F73D6
:100500001127E02E8C8D8E110CC00FB607FCFACF90
:10051000E889F989808185FFF5CFCE010E943102FB
:10052000F1CFEB8DEC0FFD2FF11DE35AFF4FF08261
:100530009FB7F8940B8FEA89FB8980818062CFCFC7
:10054000CF93DF93EC01888D8823B9F0AA89BB890A
:10055000E889F9898C9185FD03C0808186FD0DC0F5
:100560000FB607FCF7CF8C9185FFF2CF808185FF16
:10057000EDCFCE010E943102E9CFDF91CF910895F6
:10058000CB0108954F925F926F927F92BF92CF926C
:10059000DF92EF92FF920F931F93CF93DF93EC01C3
:1005A00029013A018B01C12CD12C7601C414D50448
:1005B000E604F7040CF03FC0F801B1908F018F857D
:1005C00080FF0BC0E881F9810084F185E02D20E1F6
:1005D00044E070E060E0CE010995EB85FC858D85F7
:1005E0009E85E817F90760F4B0828B859C8501969B
:1005F0009C878B872FEFC21AD20AE20AF20AD6CF63
:100600006B2D70E0E881F981028CF38DE02DCE0135
:100610000995019679F7C701B601DF91CF911F9136
:100620000F91FF90EF90DF90CF90BF907F906F90F1
:100630005F904F90089573016201EDCFCF93DF93E8
:10064000EC01E881F9810288F389E02D09958F3F5B
:10065000980731F02D813E812F5F3F4F3E832D83E0
:10066000DF91CF9108958FEF9FEF089560E070E0E4
:10067000CB01089590E080E00895FF920F931F93BF
:10068000CF93DF938C01EB016F3F7607B9F0F62E25
:10069000EAE06E1306C06DE0F801808991890E943E
:1006A000AC016F2DF801808991890E94AC01CE01C7
:1006B000DF91CF911F910F91FF900895D0E0C0E09E
:1006C000F6CF7F928F929F92AF92BF92CF92DF929E
:1006D000EF92FF920F931F93CF93DF938C01490109
:1006E0005A01EB01C12CD12C7601C814D904EA04BB
:1006F000FB04B4F479908AE0781206C06DE0F8014A
:10070000808991890E94AC01672DF80180899189C7
:100710000E94AC01FFEFCF1ADF0AEF0AFF0AE5CF14
:10072000C501B401DF91CF911F910F91FF90EF9020
:10073000DF90CF90BF90AF909F908F907F90089563
:10074000CF93DF93EC0188899989DC01ED91FC91CD
:100750000084F185E02D0995892BA9F38889998971
:10076000DC01ED91FC910284F385E02DDF91CF91C6
:100770000994CF93DF93EC0188899989DC01ED918D
:10078000FC910084F185E02D0995892BA9F38889D6
:100790009989DC01ED91FC910484F585E02DDF91D0
:1007A000CF9109948F929F92AF92BF92CF92DF9296
:1007B000EF92FF920F931F93CF93DF938C01490128
:1007C0005A01EB01C12CD12C7601D80150968D91A4
:1007D0009C91DC01ED91FC910284F385E02D09955B
:1007E0008F3F61F0C814D904EA04FB043CF48993F8
:1007F000BFEFCB1ADB0AEB0AFB0AE7CFC701B60152
:10080000DF91CF911F910F91FF90EF90DF90CF90EC
:10081000BF90AF909F908F900895DC0150968D917E
:100820009C91DC01ED91FC910084F185E02D09940F
:1008300090E080E0089590E080E0089590E080E00E
:10084000089508950895DC01ED91FC91369701908B
:10085000F081E02DE80FF91F81E791E0918380831B
:100860008BE791E097838683089521E731E0FC01CF
:10087000318320832BE731E0378326830895FB0102
:1008800020813181FC0131832083FB01428153812E
:1008900026503109F90120813181820F931FFC011B
:1008A0005183408308952DE831E0FC01318320839A
:1008B00027E931E0318F208F61E871E00C943F042B
:1008C000DC01ED91FC91369720813181820F931FDD
:1008D0000C9453040895DC01ED91FC91369701903E
:1008E000F081E02DE80FF91F8DE591E09183808381
:1008F00087E691E09383828308952DE531E0FC0142
:100900003183208327E631E0338322830895FB017E
:1009100020813181FC0131832083FB01428153819D
:1009200026503109F90120813181820F931FFC018A
:1009300051834083089529EA31E0FC01318320830B
:1009400023EB31E0358B248B6DE971E00C94870447
:10095000DC01ED91FC91369720813181820F931F4C
:100960000C949B0408950895CF93DF93EC010E94AB
:100970009B04CE01DF91CF910C94BF0CDC01ED9173
:10098000FC91369720813181820F931F0C94B4041F
:10099000CF93DF93EC010E945304CE01DF91CF91FE
:1009A0000C94BF0CDC01ED91FC91369720813181D4
:1009B000820F931F0C94C8040C94BF0C0C94BF0CB2
:1009C000DC01ED91FC91369720813181820F931FDC
:1009D0000C94DE040C94BF0C0C94BF0CDC01ED9164
:1009E000FC91369720813181820F931F0C94EC0487
:1009F0000C94BF0C0C94BF0C1F920F920FB60F9269
:100A000011242F933F938F939F93AF93BF93809124
:100A1000E6019091E701A091E801B091E9013091E0
:100A2000E50123E0230F2D3758F50196A11DB11DD7
:100A30002093E5018093E6019093E701A093E801FC
:100A4000B093E9018091EA019091EB01A091EC0152
:100A5000B091ED010196A11DB11D8093EA01909323
:100A6000EB01A093EC01B093ED01BF91AF919F9189
:100A70008F913F912F910F900FBE0F901F9018955F
:100A800026E8230F0296A11DB11DD2CF1F920F920F
:100A90000FB60F9211242F933F934F935F936F9351
:100AA0007F938F939F93AF93BF93EF93FF9382EFC7
:100AB00091E00E943102FF91EF91BF91AF919F9120
:100AC0008F917F916F915F914F913F912F910F90F7
:100AD0000FBE0F901F9018951F920F920FB60F9296
:100AE00011242F938F939F93EF93FF93E091020232
:100AF000F09103028081E0910802F091090282FDE9
:100B00001BC0908180910B028F5F8F7320910C022C
:100B1000821741F0E0910B02F0E0EE50FE4F958F0E
:100B200080930B02FF91EF919F918F912F910F90E6
:100B30000FBE0F901F9018958081F4CFCF93DF9355
:100B4000EB0188819981A4E8B3E011969C938E9380
:100B50002A813B810697EC01E881F981EC57FC4F33
:100B60003183208312961D921D921D921C9215971F
:100B700081E290E0948383838AE893E0948B838B73
:100B80001582158ADF91CF910895CF93DF93C4E842
:100B9000D3E081E290E09C8F8B8F1D8E1E8E1F8E86
:100BA00086E090E0A0E0B0E088A399A3AAA3BBA34D
:100BB0001CA21DA21EA21FA283E391E0998F888F21
:100BC00080E288A71AA619A61DA68AE893E09CA72A
:100BD0008BA7AC0161E871E0CE010E949E058DE813
:100BE00091E09983888387E991E0998F888F1A86AD
:100BF00019861C861B861E861D86188A1F861A8AE1
:100C0000198A1C8A1B8A8BE391E09F838E8382EF73
:100C100091E09F8B8E8B88E08D8BDF91CF91089533
:100C2000DB018D919C91119790935B0380935A0304
:100C300012962D913C910697DC01ED91FC91E65ABC
:100C4000FC4F3183208381E290E0948383838CE5A1
:100C500093E0948B838B1582158A0895CF93DF934D
:100C6000CAE5D3E081E290E0988F8F8B198E1A8EBF
:100C70001B8E86E090E0A0E0B0E08C8F9D8FAE8F61
:100C8000BF8F18A219A21AA21BA283E391E09D8B29
:100C90008C8B80E28CA31EA21DA219A68CE593E08A
:100CA00098A78FA3AC016DE971E0CE010E941006F8
:100CB00089EA91E09983888383EB91E09D8B8C8B0B
:100CC0001E821D8218861F821A8619861C861B8624
:100CD0001E861D86188A1F868BE391E09B838A837C
:100CE00082EF91E09B8B8A8B80E1898BDF91CF91A2
:100CF0000895CF92DF92EF92FF92CF93DF93CDB71B
:100D0000DEB7CD5BD1090FB6F894DEBF0FBECDBF05
:100D10001092F5011092F40188EEC82E83E0D82ECF
:100D2000E12CF12CC092F601D092F701E092F8018B
:100D3000F092F9018BEB91E09093F3018093F20133
:100D400085EC90E09093FF018093FE0184EC90E0AD
:100D5000909301028093000280EC90E09093030254
:100D60008093020281EC90E090930502809304024C
:100D700082EC90E0909307028093060286EC90E06C
:100D8000909309028093080210920B0210920C02B9
:100D900010920D0210920E0262EF71E08AE593E06C
:100DA0000E942E0662EF71E084E893E00E94C50580
:100DB0001092F1011092F00182EF91E09093EF0117
:100DC0008093EE0162EB70E08DE890E00E94BC0B36
:100DD0009093F1018093F001109245031092460325
:100DE00010924A0310924B0310924C0310924D0341
:100DF00010924E0310924F03109250031092510321
:100E00008AE08093480381E080934903C0925203B3
:100E1000D0925303E0925403F0925503C0925603CC
:100E2000D0925703E0925803F0925903109247036F
:100E30001092300310923103109235031092360352
:100E400010923703109238031092390310923A032C
:100E500010923B0310923C0393E0909333039EE087
:100E600090933403C0923D03D0923E03E0923F033F
:100E7000F0924003C0924103D0924203E0924303B8
:100E8000F09244038093320310921B0310921C03D0
:100E90001092200310922103109222031092230338
:100EA0001092240310922503109226031092270318
:100EB00084E080931E038FE080931F03C092280379
:100EC000D0922903E0922A03F0922B03C0922C03C4
:100ED000D0922D03E0922E03F0922F0310921D0367
:100EE000109206031092070310920B0310920C034A
:100EF00010920D0310920E0310920F031092100324
:100F0000109211031092120385E08093090380E18F
:100F100080930A03C0921303D0921403E092150346
:100F2000F0921603C0921703D0921803E0921903AF
:100F3000F0921A03109208031092F1021092F2023A
:100F40001092F6021092F7021092F8021092F90233
:100F50001092FA021092FB021092FC021092FD0213
:100F600086E08093F40281E18093F502C092FE0254
:100F7000D092FF02E0920003F0920103C0920203BC
:100F8000D0920303E0920403F09205031092F3025F
:100F90001092DC021092DD021092E1021092E20245
:100FA0001092E3021092E4021092E5021092E6021F
:100FB0001092E7021092E80287E08093DF0282E15C
:100FC0008093E002C092E902D092EA02E092EB0242
:100FD000F092EC02C092ED02D092EE02E092EF02AB
:100FE000F092F0021092DE021092C7021092C80234
:100FF0001092CC021092CD021092CE021092CF022B
:101000001092D0021092D1021092D2021092D3020A
:1010100088E08093CA0283E18093CB02C092D4021D
:10102000D092D502E092D602F092D702C092D802B6
:10103000D092D902E092DA02F092DB021092C90259
:101040001092B2021092B3021092B7021092B8023C
:101050001092B9021092BA021092BB021092BC0216
:101060001092BD021092BE0289E08093B5021092E8
:10107000B602C092BF02D092C002E092C102F092CA
:10108000C202C092C302D092C402E092C502F092A2
:10109000C6021092B40210929D0210929E0210920B
:1010A000A2021092A3021092A4021092A502109222
:1010B000A6021092A7021092A8021092A9028BE039
:1010C0008093A00282E08093A102C092AA02D092F3
:1010D000AB02E092AC02F092AD02C092AE02D092AE
:1010E000AF02E092B002F092B10210929F0285E14D
:1010F000E0E3F3E0DE01119601900D928A95E1F7AD
:1011000085E1EBE1F3E0DE01569601900D928A95C0
:10111000E1F785E1E6E0F3E0DE019B9601900D92B8
:101120008A95E1F785E1E1EFF2E0DE01A05CBF4FD7
:1011300001900D928A95E1F785E1ECEDF2E0DE0198
:10114000AB5ABF4F01900D928A95E1F785E1E7EC2C
:10115000F2E0DE01A659BF4F01900D928A95E1F7AA
:1011600085E1E2EBF2E0DE01A158BF4F01900D9264
:101170008A95E1F785E1E5E4F3E0DE01AC56BF4F87
:1011800001900D928A95E1F785E1EDE9F2E0DE014B
:10119000A755BF4F01900D928A95E1F781E190E04C
:1011A000909399028093980289E090E090939B023B
:1011B00080939A0285E691E00E94230C8093960228
:1011C000909397029C01CE010196B90163547F4F21
:1011D0002115310539F045E1FC01D90101900D924D
:1011E0004A95E1F72B5E3F4F45962617370781F763
:1011F00088E090E090939202809391021092940282
:101200001092930280E190E00E94230C9093900250
:1012100080938F02C354DF4F0FB6F894DEBF0FBE2A
:10122000CDBFDF91CF91FF90EF90DF90CF900895E9
:10123000789484B5826084BD84B5816084BD85B5B1
:10124000826085BD85B5816085BD80916E008160BD
:1012500080936E0010928100809181008260809363
:101260008100809181008160809381008091800065
:101270008160809380008091B10084608093B10090
:101280008091B00081608093B00080917A0084608A
:1012900080937A0080917A00826080937A008091B6
:1012A0007A00816080937A0080917A0080688093D0
:1012B0007A001092C100E0910202F091030282E0F4
:1012C0008083E091FE01F091FF011082E091000225
:1012D000F09101028FEC808310920A02E0910602E5
:1012E000F091070286E08083E0910402F09105020C
:1012F000808180618083E0910402F0910502808109
:1013000088608083E0910402F0910502808180680A
:101310008083E0910402F091050280818F7D8083BB
:1013200062E08EE00E944A0162E08FE00E944A0182
:1013300062E080E10E944A0162E081E10E944A018C
:1013400062E082E10E944A0162E083E10E944A0178
:1013500062E080E00E944A0162E081E00E944A016E
:1013600062E082E00E944A0161E083E00E944A015B
:1013700061E084E00E944A0161E085E00E944A0148
:1013800061E086E00E944A0161E087E00E944A0134
:1013900061E088E00E944A0161E089E00E944A0120
:1013A00061E08DE00E944A0161E08AE00E944A010A
:1013B00061E08BE00E944A0162E08CE00E944A01F9
:1013C0008091930290919402892B21F010929402C3
:1013D00010929302C0919602D091970280919A0246
:1013E00090919B0225E1289F7001299FF00C112408
:1013F000EC0EFD1EBB24B394CE15DF0509F46DC0C1
:101400008C810E94F300892B09F03FC0B88288814B
:10141000882309F45BC0C0909302D09094028601A7
:101420000F5F1F4FC016D10608F052C020919102E5
:10143000309192022017310770F5C60109962817DE
:10144000390748F590908F02A090900290939202F5
:1014500080939102880F991F0E94230C80938F0222
:1014600090939002FC01A92DBA2D90E080E0C8165F
:10147000D90669F0309729F02D913C91119731836D
:101480002083019632961296F2CF1882C0CF892D12
:101490009A2D0E94BF0C80919302909194029C011E
:1014A000220F331FE0918F02F0919002E20FF31FA1
:1014B0008017910738F4309711F0D183C0830196DB
:1014C0003296F6CF1093940200939302659694CFD0
:1014D0001092940210929302F9CF45E050E069EC2B
:1014E00071E082EF91E00E94B30142E050E06FECC6
:1014F00071E082EF91E00E94B301609100018DE004
:101500000E941C010E947B014B015C01B8EBCB2EB9
:10151000BBE0DB2EE12CF12C0E947B0168197909DC
:101520008A099B09683E734081059105A8F321E073
:10153000C21AD108E108F10888EE880E83E0981EEF
:10154000A11CB11CC114D104E104F10429F7F5E197
:10155000CF2EDD24D39402ED11E0A0E0EA2EA0E02E
:10156000FA2E609100018DE00E941C01C09196024C
:10157000D091970280919A0290919B02C89E50014F
:10158000C99EB00C1124AC0EBD1ECA15DB0551F06E
:101590008C810E94F300892B19F4D8826596F5CFCF
:1015A0001882FCCF8CE00E94F300019711F4109296
:1015B00000018091E40190E0209193023091940227
:1015C000B90161507109AC01440F551F8617970787
:1015D00009F043C08217930710F00E94550D8091C7
:1015E0008F0290919002480F591FFA01C081D1815A
:1015F0008981811107C00E94A0016D837E838F8342
:101600009887D9820E94A0018D809E80AF80B88487
:10161000681979098A099B098D849E84AF84B888EA
:10162000681579058A059B0528F461E08B810E9485
:101630001C0107C0198260E08B810E941C0110927E
:101640000001E114F10409F48CCF0E941D028823EB
:1016500009F487CF0E94000084CF8217930708F017
:10166000BCCF01968217930708F0B7CF20918F0265
:1016700030919002420F531FFA01C081D181880F2F
:10168000991F820F931FFC01A080B1808981811175
:1016900015C00E94A0016D837E838F8398879F93DE
:1016A0008F937F936F931F930F930E945A0DD9824C
:1016B0000F900F900F900F900F900F900E94A0012D
:1016C0004D805E806F80788464197509860997095A
:1016D0004D845E846F8478884616570668067906BE
:1016E00038F08981882309F4A0CF888181119DCFAA
:1016F0008091E4018F5F8093E401F501808188236C
:1017000009F49FCF0E94A00169877A878B879C8705
:101710000E94A00149845A846B847C8464197509F1
:101720008609970949885A886B887C8864157505ED
:101730008605970550F461E08B810E941C0161E0F1
:10174000F50183810E941C01E3CF198260E06ECF16
:1017500080918F02909190020E94BF0C809196021E
:10176000909197020E94BF0C84E893E00E9453047A
:101770008AE593E00C949B040F931F93CF93DF9320
:10178000009759F46115710541F4F0E0E0E0CF01F4
:10179000DF91CF911F910F9108958B01EC016EE0C5
:1017A00070E081E090E00E94070CFC01892B69F356
:1017B00080E883830115110571F01387028781E8A2
:1017C00083838091B2039091B303892B21F4F0932A
:1017D000B303E093B2032097D1F2D187C08783810E
:1017E000826083838091B4039091B503892B79F64D
:1017F000F093B503E093B4038091B6039091B703DF
:10180000892B29F6F093B703E093B603C0CF0F936B
:101810001F93CF93DF93869F8001879F100D969F24
:10182000100D1124C8010E94230CEC01009729F02F
:10183000A80170E060E00E94480DCE01DF91CF91D9
:101840001F910F9108950F931F93CF93DF938230D1
:10185000910510F482E090E0E091BA03F091BB03AF
:1018600030E020E0B0E0A0E0309799F42115310598
:1018700009F44AC0281B390B24303105D8F58A8178
:101880009B816115710589F1FB0193838283FE01C0
:1018900011C0408151810281138148175907E0F03E
:1018A0004817590799F4109761F012960C93129704
:1018B00013961C933296CF01DF91CF911F910F9118
:1018C00008950093BA031093BB03F4CF211531059B
:1018D00051F04217530738F0A901DB019A01BD010D
:1018E000DF01F801C1CFEF01F9CF9093BB038093E3
:1018F000BA03CDCFFE01E20FF31F819391932250E3
:10190000310939832883D7CF2091B8033091B903A7
:10191000232B41F420910301309104013093B9034A
:101920002093B80320910101309102012115310566
:1019300041F42DB73EB74091050150910601241B9B
:10194000350BE091B803F091B903E217F307A0F467
:101950002E1B3F0B2817390778F0AC014E5F5F4F05
:101960002417350748F04E0F5F1F5093B90340937B
:10197000B803819391939FCFF0E0E0E09CCFCF93A9
:10198000DF930097E9F0FC01329713821282A09155
:10199000BA03B091BB03ED0130E020E01097A1F451
:1019A00020813181820F931F2091B8033091B903B8
:1019B0002817390709F061C0F093B903E093B80321
:1019C000DF91CF910895EA01CE17DF07E8F54A814C
:1019D0005B819E0141155105B1F7E901FB83EA8363
:1019E00049915991C40FD51FEC17FD0761F480810F
:1019F00091810296840F951FE901998388838281E2
:101A000093819B838A83F0E0E0E012968D919C9114
:101A100013970097B9F52D913C911197CD0102963E
:101A2000820F931F2091B8033091B903281739070B
:101A300039F6309751F51092BB031092BA03B09368
:101A4000B903A093B803BCCFD383C2834081518133
:101A5000840F951FC817D90761F44E5F5F4F8881C7
:101A60009981480F591F518340838A819B819383B9
:101A700082832115310509F0B0CFF093BB03E093C9
:101A8000BA039ECFFD01DC01C0CF13821282D7CFF3
:101A9000DC0101C06D9341505040E0F70895EE0F16
:101AA000FF1F0590F491E02D099481E090E0F894F7
:101AB0000C942510B0E0A0E0E0E6FDE00C94FE0FF1
:101AC000AE014B5F5F4FFA0161917191AF0180915F
:101AD000B4039091B5030E94700DE2E00C941A10CB
:101AE000ABE0B0E0E6E7FDE00C94EE0F7C013B01DB
:101AF0008A01FC0117821682838181FFC8C1CE0151
:101B000001965C01F7019381F30193FD859193FFA9
:101B100081913F01882309F453C1853239F493FD43
:101B2000859193FF81913F01853229F4B70190E0BF
:101B30000E94600FE7CF912C212C312CFFE1F3158F
:101B400038F08B3211F190F4803209F1833229F1AF
:101B500037FC3CC020ED280F2A3050F536FE20C05F
:101B60008AE0989E200D1124922E06C08D3291F0AD
:101B7000803371F7689430F8F30193FD859193FFFA
:101B800081913F018111DACF21C0689431F86894C6
:101B900032F8F2CF689433F8EFCF689434F8ECCF92
:101BA000EAE02E9E200D1124222E689435F8E4CF11
:101BB0008E3229F436FC04C1689436F8DDCF8C36B9
:101BC00019F4689437F8D8CF8836B1F2982F9F7DF2
:101BD00095549330E0F08336A1F18337C1F183351A
:101BE00009F063C02801F2E04F0E511CF801C080DB
:101BF000D180692D70E036FC02C06FEF7FEFC60127
:101C00000E944A0F4C01689437F882010AC00C5FA9
:101C10001F4FFFE3F98388248394912C6501E89496
:101C200037F833FE2DC0522C8114910471F55520E4
:101C300009F468CFB70180E290E00E94600F5A94E7
:101C4000F6CFF801808189830E5F1F4FE4CF280112
:101C5000F2E04F0E511CF801C080D180692D70E078
:101C600036FC02C06FEF7FEFC6010E94550F4C019A
:101C70008201D5CFB70180E290E00E94600F2A94E4
:101C80002814190409F0B0F7CECFF60137FC85917E
:101C900037FE81916F01B70190E00E94600F5110F3
:101CA0005A94F1E08F1A9108BFCF843619F0893623
:101CB00009F077C0F80137FE6BC0608171818281C5
:101CC00093810C5F1F4FF32DFF763F2E97FF09C0C6
:101CD00090958095709561957F4F8F4F9F4F689439
:101CE00037F82AE030E0A5010E94900FC82ECA18EC
:101CF0008C2C432C36FE0CC0E89440F8C91440F4F8
:101D000034FE05C032FC03C0F32DFE7E4F2E892C1D
:101D100044FE95C0FE01EC0DF11D8081803309F079
:101D200087C0242D297E422E842D8870582E43FC96
:101D300095C040FE8FC09C2C821418F42C0C922C61
:101D4000981844FE91C0B70180E390E00E94600FB4
:101D500042FE09C088E790E041FE02C088E590E0BD
:101D6000B7010E94600FC91408F48AC0CA94D12C2C
:101D70009FEFC91AD90ACA0CDB1CF60182916F01C8
:101D8000B70190E00E94600FAC14BD04B1F74FCFD3
:101D900060817181072E000C880B990B0E5F1F4F1D
:101DA00092CFD32CE894D4F82AE030E0853739F18B
:101DB000232D297FD22E8F3601F148F48835A9F0E2
:101DC000F701868197812B96E2E10C940A10803707
:101DD00049F08837A9F7D4FE02C06894D2F820E110
:101DE00030E00DC06894D4F8F6CF34FE03C0822FE3
:101DF0008660D82E20E132E002C028E030E0F80111
:101E0000D7FE0FC060817181828193810C5F1F4F6B
:101E1000A5010E94900FC82ECA183D2CE89437F8EF
:101E200067CF6081718190E080E00E5F1F4FF0CF3F
:101E300042FC02C0839478CF8394839475CF842D21
:101E4000867809F471CFF6CFB70180E290E00E9466
:101E5000600F83948214C0F3512C73CF522C581806
:101E6000821408F46ECFF8CF842D867809F47BCFE6
:101E70008BE241FE80E247FC8DE2B70190E071CF3A
:101E8000B70180E390E00E94600F9A946CCF8FEFCF
:101E90009FEF99CFFC010590615070400110D8F779
:101EA000809590958E0F9F1F0895FC0161507040A2
:101EB00001900110D8F7809590958E0F9F1F08957F
:101EC0000F931F93CF93DF93182F092FEB018B8173
:101ED00081FD09C01FEF0FEF812F902FDF91CF9170
:101EE0001F910F91089582FF14C02E813F818C8134
:101EF0009D81281739073CF4E881F981CF010196CB
:101F00009983888310838E819F8101969F838E831E
:101F1000E3CFE885F985812F0995892BA1F3DACFE5
:101F2000FA01AA27283051F1203181F1E8946F930A
:101F30006E7F6E5F7F4F8F4F9F4FAF4FB1E03ED0B0
:101F4000B4E03CD0670F781F891F9A1FA11D680F4E
:101F5000791F8A1F911DA11D6A0F711D811D911D81
:101F6000A11D20D009F468943F912AE0269F1124F6
:101F70003019305D3193DEF6CF010895462F47705A
:101F8000405D4193B3E00FD0C9F7F6CF462F4F70B5
:101F9000405D4A3318F0495D31FD4052419302D013
:101FA000A9F7EACFB4E0A6959795879577956795B9
:101FB000BA95C9F700976105710508959B01AC01B9
:101FC0000A2E06945795479537952795BA95C9F7E0
:101FD000620F731F841F951FA01D08952F923F92BB
:101FE0004F925F926F927F928F929F92AF92BF9229
:101FF000CF92DF92EF92FF920F931F93CF93DF93D5
:10200000CDB7DEB7CA1BDB0B0FB6F894DEBF0FBE31
:10201000CDBF09942A88398848885F846E847D847E
:102020008C849B84AA84B984C884DF80EE80FD8080
:102030000C811B81AA81B981CE0FD11D0FB6F894F6
:10204000DEBF0FBECDBFED01089510E0C2E6D0E0C7
:1020500004C0FE010E944F0D2196C336D107C9F777
:04206000F894FFCF22
:10206400010000BC03800018000000000000000014
:1020740000E8FFE8FF00000000000014000000007A
:102084000000000000ECFFECFF0000000000000076
:10209400000000B204F804000000006A04EA04210D
:1020A400041E041B0418043A030D04D203B903A04C
:1020B40003C00261033D030200000000007D04EC44
:1020C40004FEFFFEFF00006B04EE040600000000A7
:1020D400003504DE04FAFFFAFF00002304E0048D57
:1020E400010D01170197011800000000005304C8F6
:1020F40004E8FFE8FF00006004D204A90121012BD9
:1021040001B3011400000000009B04B404ECFFECD4
:10211400FF0000A804BE04000000005302B301E065
:1021240001A0021102EF0103025374617274000DE5
:102134000A007361766564576F726B54696D653A12
:0421440020256400EE
:00000001FF
