:020000040000FA
:100000000C9463000C948B000C948B000C948B006C
:100010000C948B000C948B000C948B000C948B0034
:100020000C948B000C948B000C948B000C948B0024
:100030000C948B000C948B000C948B000C948B0014
:100040000C94FA040C948B000C946A050C944405EF
:100050000C948B000C948B000C948B000C948B00F4
:100060000C948B000C948B000000000024002700EF
:100070002A0000000000250028002B0000000000DE
:1000800023002600290004040404040404040202DA
:100090000202020203030303030301020408102007
:1000A0004080010204081020010204081020000012
:1000B0000008000201000003040700000000000027
:1000C000000077062F0A11241FBECFEFD8E0DEBF55
:1000D000CDBF11E0A0E0B1E0E6E6FDE102C0059091
:1000E0000D92A23EB107D9F723E0A2EEB1E001C024
:1000F0001D92A236B207E1F710E0C2E6D0E004C0DC
:100100002197FE010E94D00BC136D107C9F70E948A
:1001100059080C94A60E0C9400001F93CF93DF9304
:10012000182FC091EC01D091ED018A3041F4E881A3
:10013000F9810190F081E02D6DE0CE010995E88113
:10014000F9810190F081E02D612FCE01099521E028
:1001500030E0019711F430E020E0C901DF91CF9148
:100160001F910895CF93DF93C091EC01D091ED01E1
:10017000E881F9810084F185E02DCE010995892B74
:10018000B9F3E881F9810284F385E02DCE01DF9196
:10019000CF910994833081F028F4813099F0823036
:1001A000A9F008958730A9F08830C9F08430B1F4FF
:1001B000809180008F7D03C0809180008F77809335
:1001C0008000089584B58F7784BD089584B58F7DB0
:1001D000FBCF8091B0008F778093B000089580911D
:1001E000B0008F7DF9CFCF93DF93282F30E0F90156
:1001F000E255FF4F8491F901E656FF4FD491F90182
:10020000EA57FF4FC491CC23A1F081110E94CA008C
:10021000EC2FF0E0EE0FFF1FE458FF4FA591B491D3
:10022000EC91ED2381E090E009F480E0DF91CF9143
:10023000089580E090E0FACF1F93CF93DF93282FAB
:1002400030E0F901E255FF4F8491F901E656FF4F86
:10025000D491F901EA57FF4FC491CC23A9F0162F8E
:1002600081110E94CA00EC2FF0E0EE0FFF1FEE5844
:10027000FF4FA591B4918FB7F894EC91111108C07C
:10028000D095DE23DC938FBFDF91CF911F9108952E
:10029000DE2BF8CFCF93DF9390E0FC01E656FF4FC3
:1002A00024918A579F4FFC0184918823D1F090E0DC
:1002B000880F991FFC01E859FF4FA591B491FC01EB
:1002C000EE58FF4FC591D491623071F49FB7F89406
:1002D0003C91822F809583238C93E8812E2B288359
:1002E0009FBFDF91CF9108958FB7F894EC912E2B9B
:1002F0002C938FBFF6CF2FB7F8946091E8017091DF
:10030000E9018091EA019091EB012FBF0895DC0192
:10031000ED91FC910190F081E02D0994AF92BF9294
:10032000CF92DF92EF92FF920F931F93CF93DF93C1
:100330006C017B018B01040F151FEB015E01AE18F0
:10034000BF08C017D10759F06991D601ED91FC9112
:100350000190F081E02DC6010995892B79F7C5013F
:10036000DF91CF911F910F91FF90EF90DF90CF9091
:10037000BF90AF900895FC01538D448D252F30E040
:10038000842F90E0821B930B541710F0CF960895A2
:1003900001970895FC01918D828D981761F0A28DCF
:1003A000AE0FBF2FB11D5D968C91928D9F5F9F7395
:1003B000928F90E008958FEF9FEF0895FC01918D4B
:1003C000828D981731F0828DE80FF11D858D90E0B8
:1003D00008958FEF9FEF0895FC01918D228D892F55
:1003E00090E0805C9F4F821B91098F73992708953D
:1003F00080EF91E00E94EC0121E0892B09F420E0DC
:10040000822F089580E090E0892B29F00E94F80166
:1004100081110C9400000895FC01A48DA80FB92F40
:10042000B11DA35ABF4F2C91848D90E001968F731C
:100430009927848FA689B7892C93A089B1898C913B
:10044000837080648C93938D848D981306C002888A
:10045000F389E02D80818F7D80830895EF92FF9254
:100460000F931F93CF93DF93EC0181E0888F9B8DD7
:100470008C8D98131AC0E889F989808185FF15C091
:100480009FB7F894EE89FF896083E889F9898081B4
:100490008370806480839FBF81E090E0DF91CF9183
:1004A0001F910F91FF90EF900895F62E0B8D10E0A5
:1004B0000F5F1F4F0F731127E02E8C8D8E110CC014
:1004C0000FB607FCFACFE889F989808185FFF5CF5F
:1004D000CE010E940C02F1CFEB8DEC0FFD2FF11D30
:1004E000E35AFF4FF0829FB7F8940B8FEA89FB899C
:1004F00080818062CFCFCF93DF93EC01888D8823FA
:10050000B9F0AA89BB89E889F9898C9185FD03C076
:10051000808186FD0DC00FB607FCF7CF8C9185FF5B
:10052000F2CF808185FFEDCFCE010E940C02E9CF92
:10053000DF91CF910895CB0108954F925F926F9212
:100540007F92BF92CF92DF92EF92FF920F931F9311
:10055000CF93DF93EC0129013A018B01C12CD12CFF
:100560007601C414D504E604F7040CF03FC0F8018A
:10057000B1908F018F8580FF0BC0E881F9810084E5
:10058000F185E02D20E144E070E060E0CE010995C6
:10059000EB85FC858D859E85E817F90760F4B082B0
:1005A0008B859C8501969C878B872FEFC21AD20A78
:1005B000E20AF20AD6CF6B2D70E0E881F981028C55
:1005C000F38DE02DCE010995019679F7C701B601AB
:1005D000DF91CF911F910F91FF90EF90DF90CF901F
:1005E000BF907F906F905F904F900895730162016C
:1005F000EDCFCF93DF93EC01E881F9810288F38995
:10060000E02D09958F3F980731F02D813E812F5FB6
:100610003F4F3E832D83DF91CF9108958FEF9FEF62
:10062000089560E070E0CB01089590E080E00895C7
:10063000FF920F931F93CF93DF938C01EB016F3FDA
:100640007607B9F0F62EEAE06E1306C06DE0F80109
:10065000808991890E9487016F2DF8018089918995
:100660000E948701CE01DF91CF911F910F91FF90E2
:100670000895D0E0C0E0F6CF7F928F929F92AF9224
:10068000BF92CF92DF92EF92FF920F931F93CF937F
:10069000DF938C0149015A01EB01C12CD12C760169
:1006A000C814D904EA04FB04B4F479908AE07812FF
:1006B00006C06DE0F801808991890E948701672D4D
:1006C000F801808991890E948701FFEFCF1ADF0A24
:1006D000EF0AFF0AE5CFC501B401DF91CF911F9169
:1006E0000F91FF90EF90DF90CF90BF90AF909F90D1
:1006F0008F907F900895CF93DF93EC01888999893B
:10070000DC01ED91FC910084F185E02D0995892BA8
:10071000A9F388899989DC01ED91FC910284F38524
:10072000E02DDF91CF910994CF93DF93EC0188897D
:100730009989DC01ED91FC910084F185E02D09950A
:10074000892BA9F388899989DC01ED91FC910484B6
:10075000F585E02DDF91CF9109948F929F92AF9212
:10076000BF92CF92DF92EF92FF920F931F93CF939E
:10077000DF938C0149015A01EB01C12CD12C760188
:10078000D80150968D919C91DC01ED91FC910284F1
:10079000F385E02D09958F3F61F0C814D904EA0470
:1007A000FB043CF48993BFEFCB1ADB0AEB0AFB0A8C
:1007B000E7CFC701B601DF91CF911F910F91FF9055
:1007C000EF90DF90CF90BF90AF909F908F90089563
:1007D000DC0150968D919C91DC01ED91FC9100849F
:1007E000F185E02D099490E080E0089590E080E0AC
:1007F000089590E080E0089508950895DC01ED915A
:10080000FC9136970190F081E02DE80FF91F81E708
:1008100091E0918380838BE791E0978386830895AD
:1008200021E731E0FC01318320832BE731E037837E
:1008300026830895FB0120813181FC0131832083CF
:10084000FB014281538126503109F9012081318118
:10085000820F931FFC015183408308952DE831E0FE
:10086000FC013183208327E931E0318F208F61E85B
:1008700071E00C941A04DC01ED91FC913697208113
:100880003181820F931F0C942E040895DC01ED91A9
:10089000FC9136970190F081E02DE80FF91F8DE56E
:1008A00091E09183808387E691E09383828308952A
:1008B0002DE531E0FC013183208327E631E03383ED
:1008C00022830895FB0120813181FC013183208343
:1008D000FB014281538126503109F9012081318188
:1008E000820F931FFC0151834083089529EA31E070
:1008F000FC013183208323EB31E0358B248B6DE9C0
:1009000071E00C946204DC01ED91FC91369720813A
:100910003181820F931F0C94760408950895CF932C
:10092000DF93EC010E947604CE01DF91CF910C940D
:10093000400BDC01ED91FC91369720813181820FD3
:10094000931F0C948F04CF93DF93EC010E942E042D
:10095000CE01DF91CF910C94400BDC01ED91FC9125
:10096000369720813181820F931F0C94A3040C943D
:10097000400B0C94400BDC01ED91FC9136972081EB
:100980003181820F931F0C94B9040C94400B0C948A
:10099000400BDC01ED91FC91369720813181820F73
:1009A000931F0C94C7040C94400B0C94400BCF93F2
:1009B000DF93EC018B810E94F3009F938F938B81D7
:1009C0001F928F9389EC91E09F938F930E94DB0B92
:1009D0008B810E94F3000F900F900F900F900F905B
:1009E0000F90892B29F481E08883DF91CF910895BE
:1009F0001882FBCF1F920F920FB60F9211242F93E4
:100A00003F938F939F93AF93BF938091E801909111
:100A1000E901A091EA01B091EB013091E70123E0F7
:100A2000230F2D3758F50196A11DB11D2093E70125
:100A30008093E8019093E901A093EA01B093EB0160
:100A40008091E3019091E401A091E501B091E6016C
:100A50000196A11DB11D8093E3019093E401A09341
:100A6000E501B093E601BF91AF919F918F913F91C6
:100A70002F910F900FBE0F901F90189526E8230F0F
:100A80000296A11DB11DD2CF1F920F920FB60F92E9
:100A900011242F933F934F935F936F937F938F9383
:100AA0009F93AF93BF93EF93FF9380EF91E00E94EA
:100AB0000C02FF91EF91BF91AF919F918F917F9128
:100AC0006F915F914F913F912F910F900FBE0F90BB
:100AD0001F9018951F920F920FB60F9211242F930B
:100AE0008F939F93EF93FF93E0910002F0910102A7
:100AF0008081E0910602F091070282FD1BC0908187
:100B0000809109028F5F8F7320910A02821741F052
:100B1000E0910902F0E0E051FE4F958F80930902C9
:100B2000FF91EF919F918F912F910F900FBE0F909A
:100B30001F9018958081F4CFCF93DF93EB018881CC
:100B40009981AAE2B3E011969C938E932A813B810E
:100B50000697EC01E881F981E65DFC4F3183208343
:100B600012961D921D921D921C92159781E290E0A3
:100B70009483838380E393E0948B838B1582158A1F
:100B8000DF91CF910895CF93DF93CAE2D3E081E262
:100B900090E09C8F8B8F1D8E1E8E1F8E86E090E0C6
:100BA000A0E0B0E088A399A3AAA3BBA31CA21DA2A6
:100BB0001EA21FA283E391E0998F888F80E288A70D
:100BC0001AA619A61DA680E393E09CA78BA7AC01EB
:100BD00061E871E0CE010E949C058DE891E0998367
:100BE000888387E991E0998F888F1A8619861C86F9
:100BF0001B861E861D86188A1F861A8A198A1C8AD9
:100C00001B8A8BE391E09F838E8380EF91E09F8B23
:100C10008E8B88E08D8BDF91CF910895DB018D91D4
:100C20009C911197909301038093000312962D914C
:100C30003C910697DC01ED91FC91E050FD4F318332
:100C4000208381E290E09483838382E093E0948B1D
:100C5000838B1582158A0895CF93DF93C0E0D3E08C
:100C600081E290E0988F8F8B198E1A8E1B8E86E012
:100C700090E0A0E0B0E08C8F9D8FAE8FBF8F18A268
:100C800019A21AA21BA283E391E09D8B8C8B80E2B8
:100C90008CA31EA21DA219A682E093E098A78FA3A1
:100CA000AC016DE971E0CE010E940E0689EA91E087
:100CB0009983888383EB91E09D8B8C8B1E821D82B0
:100CC00018861F821A8619861C861B861E861D861C
:100CD000188A1F868BE391E09B838A8380EF91E0E3
:100CE0009B8B8A8B80E1898BDF91CF910895CF9385
:100CF000DF93CDB7DEB7CC56D1090FB6F894DEBF7F
:100D00000FBECDBF1092F3011092F20188EE93E076
:100D1000A0E0B0E08093F4019093F501A093F60178
:100D2000B093F7018BEB91E09093F1018093F00188
:100D300085EC90E09093FD018093FC0184EC90E0C1
:100D40009093FF018093FE0180EC90E0909301026C
:100D50008093000281EC90E0909303028093020262
:100D600082EC90E0909305028093040286EC90E080
:100D700090930702809306021092090210920A02D1
:100D800010920B0210920C0260EF71E080E093E091
:100D90000E942C0660EF71E08AE293E00E94C30596
:100DA0001092EF011092EE0180EF91E09093ED012F
:100DB0008093EC0162EB70E08DE890E00E943D0AC8
:100DC0009093EF018093EE011092ED021092EE02EB
:100DD0008AE08093EF0281E08093F0021092F202A9
:100DE0001092F1021092F4021092F30220ED37E01B
:100DF0003093F6022093F50288EE93E09093F80288
:100E00008093F7021092E1021092E20243E04093D5
:100E1000E3024EE04093E4021092E6021092E502F3
:100E20001092E8021092E7023093EA022093E9025E
:100E30009093EC028093EB021092D5021092D602AE
:100E400044E04093D7024FE04093D8021092DA0278
:100E50001092D9021092DC021092DB023093DE0273
:100E60002093DD029093E0028093DF021092C9028A
:100E70001092CA0245E04093CB0240E14093CC027D
:100E80001092CE021092CD021092D0021092CF0298
:100E90003093D2022093D1029093D4028093D30254
:100EA0001092BD021092BE0246E04093BF0241E1A3
:100EB0004093C0021092C2021092C1021092C4026A
:100EC0001092C3023093C6022093C5029093C802C9
:100ED0008093C7021092B1021092B20247E0409391
:100EE000B30242E14093B4021092B6021092B502EE
:100EF0001092B8021092B7023093BA022093B9024E
:100F00009093BC028093BB021092A5021092A6029D
:100F100048E04093A70243E14093A8021092AA023E
:100F20001092A9021092AC021092AB023093AE0262
:100F30002093AD029093B0028093AF021092990279
:100F400010929A0249E040939B0210929C021092E8
:100F50009E0210929D021092A00210929F02309366
:100F6000A2022093A1029093A4028093A302109264
:100F70008D0210928E024BE040938F0242E040932C
:100F8000900210929202109291021092940210928A
:100F90009302309396022093950290939802809347
:100FA00097028CE0E1EEF2E0DE01119601900D92E5
:100FB0008A95E1F78CE0E5EDF2E0DE011D96019007
:100FC0000D928A95E1F78CE0E9ECF2E0DE015996AA
:100FD00001900D928A95E1F78CE0EDEBF2E0DE01F5
:100FE000959601900D928A95E1F78CE0E1EBF2E0A5
:100FF000DE01D19601900D928A95E1F78CE0E5EA49
:10100000F2E0DE01DD9601900D928A95E1F78CE029
:10101000E9E9F2E0DE01A75BBF4F01900D928A95EE
:10102000E1F78CE0EDEEF2E0DE01AB5ABF4F01904C
:101030000D928A95E1F78CE0EDE8F2E0DE01AF5920
:10104000BF4F01900D928A95E1F781E190E0909376
:10105000FC028093FB0289E090E09093FE02809373
:10106000FD028CEC90E00E94A40A8093F902909318
:10107000FA029C01CE010196B90164597F4F2115F6
:10108000310539F04CE0FC01D90101900D924A95EF
:10109000E1F7245F3F4F0C966217730781F7C4593D
:1010A000DF4F0FB6F894DEBF0FBECDBFDF91CF91FB
:1010B0000895CF93DF9300D000D0CDB7DEB77894FA
:1010C00084B5826084BD84B5816084BD85B582604D
:1010D00085BD85B5816085BD80916E0081608093FE
:1010E0006E00109281008091810082608093810067
:1010F0008091810081608093810080918000816077
:10110000809380008091B10084608093B1008091D1
:10111000B00081608093B00080917A0084608093F9
:101120007A0080917A00826080937A0080917A00C0
:10113000816080937A0080917A00806880937A0041
:101140001092C100E0910002F091010282E08083E0
:10115000E091FC01F091FD011082E091FE01F0911F
:10116000FF018FEC808310920802E0910402F0915D
:10117000050286E08083E0910202F0910302808103
:1011800080618083E0910202F09103028081886097
:101190008083E0910202F091030280818068808365
:1011A000E0910202F091030280818F7D808362E0F2
:1011B0008EE00E944A0162E08FE00E944A0162E0F4
:1011C00080E10E944A0162E081E10E944A0162E0FE
:1011D00082E10E944A0162E083E10E944A0162E0EA
:1011E00080E00E944A0162E081E00E944A0162E0E0
:1011F00082E00E944A0161E083E00E944A0161E0CE
:1012000084E00E944A0161E085E00E944A0161E0B9
:1012100086E00E944A0161E087E00E944A0161E0A5
:1012200088E00E944A0161E089E00E944A0161E091
:101230008DE00E944A0161E08AE00E944A0161E07B
:101240008BE00E944A0162E08CE00E944A0145E086
:1012500050E068ED71E080EF91E00E948E0142E085
:1012600050E06EED71E080EF91E00E948E018CE025
:10127000982E90E0E92E90E0F92E609100018DE02B
:101280000E941C018091ED029091EE02A091EF026C
:10129000B091F00289839A83AB83BC830091F902F9
:1012A0001091FA028091FD029091FE02989E6001D9
:1012B000999ED00C1124C00ED11E0C151D0531F0C5
:1012C000C8010E94D704045F1F4FF7CFCE010196DB
:1012D0000E94D7048CE00E94F300892B09F07EC0A5
:1012E0008091FD029091FE020091E201202F30E0FA
:1012F00069014FEFC41AD40AECE00E9F800111245B
:10130000C816D90608F076C02817390710F00E94D1
:10131000D60BA090F902B090FA020A0D1B1DF8013D
:101320008181811107C00E947B01F801758364836C
:1013300081E081830E947B01F80124813581AB012A
:10134000BC01421B530B6109710980859185B0E096
:10135000A0E084179507A607B70760F0818188236E
:1013600019F08081882331F061E0F80182810E94C8
:101370001C0134C00E947B01F801778366839C9C2A
:10138000C0019D9C900D1124A80EB91E0E947B01E6
:10139000F80126813781AB01BC01421B530B610967
:1013A000710982859385B0E0A0E0481759076A0764
:1013B0007B0750F461E082810E941C0161E0F5012D
:1013C00082810E941C01E2CF118260E082810E9432
:1013D0001C018091E2018F5F8093E201E114F1042E
:1013E00009F44BCF0E94F801882309F446CF0E94EC
:1013F000000043CF2817390708F089CF8091F90200
:101400009091FA02080F191FF8018181811107C01C
:101410000E947B01F8017583648381E081830E94CF
:101420007B01F80124813581AB01BC01421B530BC8
:101430006109710980859185B0E0A0E048175907DE
:101440006A077B0710F461E091CF118260E082812E
:101450000E941C01109200011092E201BFCF809106
:10146000F9029091FA020E94400B8AE293E00E94F6
:101470002E0480E093E00C9476040F931F93CF9397
:10148000DF93009759F46115710541F4F0E0E0E055
:10149000CF01DF91CF911F910F9108958B01EC0146
:1014A0006EE070E081E090E00E94880AFC01892BE8
:1014B00069F380E883830115110571F013870287B2
:1014C00081E883838091580390915903892B21F4FB
:1014D000F0935903E09358032097D1F2D187C08746
:1014E00083818260838380915A0390915B03892B6F
:1014F00079F6F0935B03E0935A0380915C0390913B
:101500005D03892B29F6F0935D03E0935C03C0CF64
:101510000F931F93CF93DF93869F8001879F100DBA
:10152000969F100D1124C8010E94A40AEC01009797
:1015300029F0A80170E060E00E94C90BCE01DF91A4
:10154000CF911F910F9108950F931F93CF93DF9326
:101550008230910510F482E090E0E0916003F09118
:10156000610330E020E0B0E0A0E0309799F421156D
:10157000310509F44AC0281B390B24303105D8F550
:101580008A819B816115710589F1FB0193838283B7
:10159000FE0111C040815181028113814817590712
:1015A000E0F04817590799F4109761F012960C93E0
:1015B000129713961C933296CF01DF91CF911F9112
:1015C0000F9108950093600310936103F4CF2115E8
:1015D000310551F04217530738F0A901DB019A0198
:1015E000BD01DF01F801C1CFEF01F9CF9093610395
:1015F00080936003CDCFFE01E20FF31F819391939F
:101600002250310939832883D7CF20915E0330914E
:101610005F03232B41F420910301309104013093A7
:101620005F0320935E032091010130910201211597
:10163000310541F42DB73EB74091050150910601A7
:10164000241B350BE0915E03F0915F03E217F30773
:10165000A0F42E1B3F0B2817390778F0AC014E5F22
:101660005F4F2417350748F04E0F5F1F50935F03FD
:1016700040935E03819391939FCFF0E0E0E09CCF95
:10168000CF93DF930097E9F0FC0132971382128227
:10169000A0916003B0916103ED0130E020E010976C
:1016A000A1F420813181820F931F20915E0330913C
:1016B0005F032817390709F061C0F0935F03E093D7
:1016C0005E03DF91CF910895EA01CE17DF07E8F5B9
:1016D0004A815B819E0141155105B1F7E901FB8308
:1016E000EA8349915991C40FD51FEC17FD0761F4A6
:1016F000808191810296840F951FE90199838883E7
:10170000828193819B838A83F0E0E0E012968D9141
:101710009C9113970097B9F52D913C911197CD01AC
:101720000296820F931F20915E0330915F0328176A
:10173000390739F6309751F5109261031092600322
:10174000B0935F03A0935E03BCCFD383C283408179
:101750005181840F951FC817D90761F44E5F5F4F01
:1017600088819981480F591F518340838A819B81C9
:10177000938382832115310509F0B0CFF093610383
:10178000E09360039ECFFD01DC01C0CF1382128283
:10179000D7CFDC0101C06D9341505040E0F7089570
:1017A000EE0FFF1F0590F491E02D099481E090E089
:1017B000F8940C94A60EB0E0A0E0E1EEFBE00C94EF
:1017C0007F0EAE014B5F5F4FFA0161917191AF01E6
:1017D00080915A0390915B030E94F10BE2E00C941C
:1017E0009B0EABE0B0E0E7EFFBE00C946F0E7C01EA
:1017F0003B018A01FC0117821682838181FFC8C1E7
:10180000CE0101965C01F7019381F30193FD85916F
:1018100093FF81913F01882309F453C1853239F444
:1018200093FD859193FF81913F01853229F4B701A2
:1018300090E00E94E10DE7CF912C212C312CFFE1AB
:10184000F31538F08B3211F190F4803209F18332C4
:1018500029F137FC3CC020ED280F2A3050F536FE28
:1018600020C08AE0989E200D1124922E06C08D3251
:1018700091F0803371F7689430F8F30193FD85910E
:1018800093FF81913F018111DACF21C0689431F833
:10189000689432F8F2CF689433F8EFCF689434F854
:1018A000ECCFEAE02E9E200D1124222E689435F80C
:1018B000E4CF8E3229F436FC04C1689436F8DDCFCB
:1018C0008C3619F4689437F8D8CF8836B1F2982F4F
:1018D0009F7D95549330E0F08336A1F18337C1F1B9
:1018E000833509F063C02801F2E04F0E511CF80166
:1018F000C080D180692D70E036FC02C06FEF7FEFB1
:10190000C6010E94CB0D4C01689437F882010AC0D1
:101910000C5F1F4FFFE3F98388248394912C6501AA
:10192000E89437F833FE2DC0522C8114910471F5E0
:10193000552009F468CFB70180E290E00E94E10DE4
:101940005A94F6CFF801808189830E5F1F4FE4CF50
:101950002801F2E04F0E511CF801C080D180692DA2
:1019600070E036FC02C06FEF7FEFC6010E94D60D1B
:101970004C018201D5CFB70180E290E00E94E10DD9
:101980002A942814190409F0B0F7CECFF60137FCD9
:10199000859137FE81916F01B70190E00E94E10DC2
:1019A00051105A94F1E08F1A9108BFCF843619F084
:1019B000893609F077C0F80137FE6BC0608171810C
:1019C000828193810C5F1F4FF32DFF763F2E97FF8F
:1019D00009C090958095709561957F4F8F4F9F4F6F
:1019E000689437F82AE030E0A5010E94110EC82E55
:1019F000CA188C2C432C36FE0CC0E89440F8C9144D
:101A000040F434FE05C032FC03C0F32DFE7E4F2EA1
:101A1000892C44FE95C0FE01EC0DF11D80818033C0
:101A200009F087C0242D297E422E842D8870582EDF
:101A300043FC95C040FE8FC09C2C821418F42C0CE3
:101A4000922C981844FE91C0B70180E390E00E9468
:101A5000E10D42FE09C088E790E041FE02C088E542
:101A600090E0B7010E94E10DC91408F48AC0CA943D
:101A7000D12C9FEFC91AD90ACA0CDB1CF60182913E
:101A80006F01B70190E00E94E10DAC14BD04B1F705
:101A90004FCF60817181072E000C880B990B0E5F70
:101AA0001F4F92CFD32CE894D4F82AE030E085374A
:101AB00039F1232D297FD22E8F3601F148F4883554
:101AC000A9F0F701868197812B96E2E10C948B0EA9
:101AD000803749F08837A9F7D4FE02C06894D2F85D
:101AE00020E130E00DC06894D4F8F6CF34FE03C096
:101AF000822F8660D82E20E132E002C028E030E05C
:101B0000F801D7FE0FC060817181828193810C5FE3
:101B10001F4FA5010E94110EC82ECA183D2CE89433
:101B200037F867CF6081718190E080E00E5F1F4FD2
:101B3000F0CF42FC02C0839478CF8394839475CF16
:101B4000842D867809F471CFF6CFB70180E290E05A
:101B50000E94E10D83948214C0F3512C73CF522C58
:101B60005818821408F46ECFF8CF842D867809F4C3
:101B70007BCF8BE241FE80E247FC8DE2B70190E033
:101B800071CFB70180E390E00E94E10D9A946CCF91
:101B90008FEF9FEF99CFFC010590615070400110CD
:101BA000D8F7809590958E0F9F1F0895FC01615086
:101BB000704001900110D8F7809590958E0F9F1F6F
:101BC00008950F931F93CF93DF93182F092FEB01E5
:101BD0008B8181FD09C01FEF0FEF812F902FDF91C7
:101BE000CF911F910F91089582FF14C02E813F81E4
:101BF0008C819D81281739073CF4E881F981CF0158
:101C000001969983888310838E819F8101969F839B
:101C10008E83E3CFE885F985812F0995892BA1F380
:101C2000DACFFA01AA27283051F1203181F1E89466
:101C30006F936E7F6E5F7F4F8F4F9F4FAF4FB1E0BF
:101C40003ED0B4E03CD0670F781F891F9A1FA11DBA
:101C5000680F791F8A1F911DA11D6A0F711D811DBB
:101C6000911DA11D20D009F468943F912AE0269F80
:101C700011243019305D3193DEF6CF010895462FDF
:101C80004770405D4193B3E00FD0C9F7F6CF462FC0
:101C90004F70405D4A3318F0495D31FD4052419329
:101CA00002D0A9F7EACFB4E0A695979587957795E6
:101CB0006795BA95C9F700976105710508959B016D
:101CC000AC010A2E06945795479537952795BA95F6
:101CD000C9F7620F731F841F951FA01D08952F92CF
:101CE0003F924F925F926F927F928F929F92AF92AC
:101CF000BF92CF92DF92EF92FF920F931F93CF93F9
:101D0000DF93CDB7DEB7CA1BDB0B0FB6F894DEBF8F
:101D10000FBECDBF09942A88398848885F846E84B5
:101D20007D848C849B84AA84B984C884DF80EE80FF
:101D3000FD800C811B81AA81B981CE0FD11D0FB608
:101D4000F894DEBF0FBECDBFED01089510E0C2E6EE
:101D5000D0E004C0FE010E94D00B2196C336D1070B
:101D6000C9F7F894FFCF010000620380001800005B
:101D700000000000000000E8FFE8FF000000000095
:101D80000014000000000000000000ECFFECFF0069
:101D90000000000000000000008D04D304000000DB
:101DA000004504C504FC03F903F603F3031503E837
:101DB00003AD0394037B039B023C03180302000062
:101DC0000000005804C704FEFFFEFF00004604C9DF
:101DD000040600000000001004B904FAFFFAFF0036
:101DE00000FE03BB048D010D0117019701180000CF
:101DF0000000002E04A304E8FFE8FF00003B04AD50
:101E000004A90121012B01B3011400000000007698
:101E1000048F04ECFFECFF00008304990400000031
:101E2000002E028E01BB017B02EC01CA01DE0173B0
:101E3000746174653A202564202D20256400537454
:081E4000617274000D0A00003C
:107E0000112484B714BE81FFF0D085E080938100F7
:107E100082E08093C00088E18093C10086E0809377
:107E2000C20080E18093C4008EE0C9D0259A86E02C
:107E300020E33CEF91E0309385002093840096BBD3
:107E4000B09BFECF1D9AA8958150A9F7CC24DD24C4
:107E500088248394B5E0AB2EA1E19A2EF3E0BF2EE7
:107E6000A2D0813461F49FD0082FAFD0023811F036
:107E7000013811F484E001C083E08DD089C08234E0
:107E800011F484E103C0853419F485E0A6D080C0E4
:107E9000853579F488D0E82EFF2485D0082F10E0AE
:107EA000102F00270E291F29000F111F8ED06801E7
:107EB0006FC0863521F484E090D080E0DECF843638
:107EC00009F040C070D06FD0082F6DD080E0C81688
:107ED00080E7D80618F4F601B7BEE895C0E0D1E017
:107EE00062D089930C17E1F7F0E0CF16F0E7DF06D8
:107EF00018F0F601B7BEE89568D007B600FCFDCFD4
:107F0000A601A0E0B1E02C9130E011968C91119780
:107F100090E0982F8827822B932B1296FA010C0160
:107F200087BEE89511244E5F5F4FF1E0A038BF0790
:107F300051F7F601A7BEE89507B600FCFDCF97BE46
:107F4000E89526C08437B1F42ED02DD0F82E2BD052
:107F50003CD0F601EF2C8F010F5F1F4F84911BD097
:107F6000EA94F801C1F70894C11CD11CFA94CF0C13
:107F7000D11C0EC0853739F428D08EE10CD085E9AC
:107F80000AD08FE07ACF813511F488E018D01DD067
:107F900080E101D065CF982F8091C00085FFFCCF94
:107FA0009093C60008958091C00087FFFCCF809118
:107FB000C00084FD01C0A8958091C6000895E0E648
:107FC000F0E098E1908380830895EDDF803219F02E
:107FD00088E0F5DFFFCF84E1DECF1F93182FE3DFCA
:107FE0001150E9F7F2DF1F91089580E0E8DFEE27F6
:047FF000FF270994CA
:027FFE00040479
:00000001FF
