:020000040000FA
:100000000C9463000C948B000C948B000C948B006C
:100010000C948B000C948B000C948B000C948B0034
:100020000C948B000C948B000C948B000C948B0024
:100030000C948B000C948B000C948B000C948B0014
:100040000C94EE040C948B000C945E050C94380513
:100050000C948B000C948B000C948B000C948B00F4
:100060000C948B000C948B000000000024002700EF
:100070002A0000000000250028002B0000000000DE
:1000800023002600290004040404040404040202DA
:100090000202020203030303030301020408102007
:1000A0004080010204081020010204081020000012
:1000B0000008000201000003040700000000000027
:1000C00000006B061A0A11241FBECFEFD8E0DEBF76
:1000D000CDBF11E0A0E0B1E0ECE3FDE102C005908E
:1000E0000D92A23EB107D9F723E0A2EEB1E001C024
:1000F0001D92A337B207E1F710E0C2E6D0E004C0DA
:100100002197FE010E94BB0BC136D107C9F70E949F
:1001100071080C94910E0C9400001F93CF93DF9301
:10012000182FC091EB01D091EC018A3041F4E881A5
:10013000F9810190F081E02D6DE0CE010995E88113
:10014000F9810190F081E02D612FCE01099521E028
:1001500030E0019711F430E020E0C901DF91CF9148
:100160001F910895CF93DF93C091EB01D091EC01E3
:10017000E881F9810084F185E02DCE010995892B74
:10018000B9F3E881F9810284F385E02DCE01DF9196
:10019000CF910994833081F028F4813099F0823036
:1001A000A9F008958730A9F08830C9F08430B1F4FF
:1001B000809180008F7D03C0809180008F77809335
:1001C0008000089584B58F7784BD089584B58F7DB0
:1001D000FBCF8091B0008F778093B000089580911D
:1001E000B0008F7DF9CFCF93DF93282F30E0F90156
:1001F000E255FF4F8491F901E656FF4FD491F90182
:10020000EA57FF4FC491CC23A1F081110E94CA008C
:10021000EC2FF0E0EE0FFF1FE458FF4FA591B491D3
:10022000EC91ED2381E090E009F480E0DF91CF9143
:10023000089580E090E0FACF1F93CF93DF93282FAB
:1002400030E0F901E255FF4F8491F901E656FF4F86
:10025000D491F901EA57FF4FC491CC23A9F0162F8E
:1002600081110E94CA00EC2FF0E0EE0FFF1FEE5844
:10027000FF4FA591B4918FB7F894EC91111108C07C
:10028000D095DE23DC938FBFDF91CF911F9108952E
:10029000DE2BF8CFCF93DF9390E0FC01E656FF4FC3
:1002A00024918A579F4FFC0184918823D1F090E0DC
:1002B000880F991FFC01E859FF4FA591B491FC01EB
:1002C000EE58FF4FC591D491623071F49FB7F89406
:1002D0003C91822F809583238C93E8812E2B288359
:1002E0009FBFDF91CF9108958FB7F894EC912E2B9B
:1002F0002C938FBFF6CFDC01ED91FC910190F08142
:10030000E02D0994AF92BF92CF92DF92EF92FF92CD
:100310000F931F93CF93DF936C017B018B01040F2D
:10032000151FEB015E01AE18BF08C017D10759F0C9
:100330006991D601ED91FC910190F081E02DC6010B
:100340000995892B79F7C501DF91CF911F910F9105
:10035000FF90EF90DF90CF90BF90AF900895FC0199
:10036000538D448D252F30E0842F90E0821B930B1A
:10037000541710F0CF96089501970895FC01918DC0
:10038000828D981761F0A28DAE0FBF2FB11D5D96C3
:100390008C91928D9F5F9F73928F90E008958FEF65
:1003A0009FEF0895FC01918D828D981731F0828D19
:1003B000E80FF11D858D90E008958FEF9FEF089570
:1003C000FC01918D228D892F90E0805C9F4F821BD4
:1003D00091098F73992708958FEE91E00E94E001B3
:1003E00021E0892B09F420E0822F089580E090E03D
:1003F000892B29F00E94EC0181110C9400000895D2
:10040000FC01A48DA80FB92FB11DA35ABF4F2C9189
:10041000848D90E001968F739927848FA689B78980
:100420002C93A089B1898C91837080648C93938D77
:10043000848D981306C00288F389E02D80818F7D1A
:1004400080830895EF92FF920F931F93CF93DF93D2
:10045000EC0181E0888F9B8D8C8D98131AC0E88900
:10046000F989808185FF15C09FB7F894EE89FF89CF
:100470006083E889F98980818370806480839FBF6D
:1004800081E090E0DF91CF911F910F91FF90EF906D
:100490000895F62E0B8D10E00F5F1F4F0F7311277D
:1004A000E02E8C8D8E110CC00FB607FCFACFE889B8
:1004B000F989808185FFF5CFCE010E940002F1CF3E
:1004C000EB8DEC0FFD2FF11DE35AFF4FF0829FB72C
:1004D000F8940B8FEA89FB8980818062CFCFCF931C
:1004E000DF93EC01888D8823B9F0AA89BB89E8895C
:1004F000F9898C9185FD03C0808186FD0DC00FB602
:1005000007FCF7CF8C9185FFF2CF808185FFEDCF7F
:10051000CE010E940002E9CFDF91CF910895CB0177
:1005200008954F925F926F927F92BF92CF92DF9227
:10053000EF92FF920F931F93CF93DF93EC0129016A
:100540003A018B01C12CD12C7601C414D504E604E8
:10055000F7040CF03FC0F801B1908F018F8580FF48
:100560000BC0E881F9810084F185E02D20E144E0B1
:1005700070E060E0CE010995EB85FC858D859E8558
:10058000E817F90760F4B0828B859C8501969C87FB
:100590008B872FEFC21AD20AE20AF20AD6CF6B2D4E
:1005A00070E0E881F981028CF38DE02DCE01099590
:1005B000019679F7C701B601DF91CF911F910F9195
:1005C000FF90EF90DF90CF90BF907F906F905F9003
:1005D0004F90089573016201EDCFCF93DF93EC014B
:1005E000E881F9810288F389E02D09958F3F98070A
:1005F00031F02D813E812F5F3F4F3E832D83DF9170
:10060000CF9108958FEF9FEF089560E070E0CB01E8
:10061000089590E080E00895FF920F931F93CF9389
:10062000DF938C01EB016F3F7607B9F0F62EEAE01D
:100630006E1306C06DE0F801808991890E947B01EC
:100640006F2DF801808991890E947B01CE01DF9195
:10065000CF911F910F91FF900895D0E0C0E0F6CFA9
:100660007F928F929F92AF92BF92CF92DF92EF9242
:10067000FF920F931F93CF93DF938C0149015A018F
:10068000EB01C12CD12C7601C814D904EA04FB0477
:10069000B4F479908AE0781206C06DE0F8018089A0
:1006A00091890E947B01672DF801808991890E94C0
:1006B0007B01FFEFCF1ADF0AEF0AFF0AE5CFC50182
:1006C000B401DF91CF911F910F91FF90EF90DF90D8
:1006D000CF90BF90AF909F908F907F900895CF93D1
:1006E000DF93EC0188899989DC01ED91FC9100840C
:1006F000F185E02D0995892BA9F388899989DC0179
:10070000ED91FC910284F385E02DDF91CF91099466
:10071000CF93DF93EC0188899989DC01ED91FC91FD
:100720000084F185E02D0995892BA9F388899989A1
:10073000DC01ED91FC910484F585E02DDF91CF91F2
:1007400009948F929F92AF92BF92CF92DF92EF92D5
:10075000FF920F931F93CF93DF938C0149015A01AE
:10076000EB01C12CD12C7601D80150968D919C9132
:10077000DC01ED91FC910284F385E02D09958F3F1A
:1007800061F0C814D904EA04FB043CF48993BFEF78
:10079000CB1ADB0AEB0AFB0AE7CFC701B601DF91F0
:1007A000CF911F910F91FF90EF90DF90CF90BF906E
:1007B000AF909F908F900895DC0150968D919C9101
:1007C000DC01ED91FC910084F185E02D099490E02D
:1007D00080E0089590E080E0089590E080E0089542
:1007E00008950895DC01ED91FC9136970190F08118
:1007F000E02DE80FF91F81E791E0918380838BE77B
:1008000091E097838683089521E731E0FC013183ED
:1008100020832BE731E0378326830895FB01208175
:100820003181FC0131832083FB01428153812650B9
:100830003109F90120813181820F931FFC0151831D
:10084000408308952DE831E0FC013183208327E9BE
:1008500031E0318F208F61E871E00C940E04DC01EF
:10086000ED91FC91369720813181820F931F0C947A
:1008700022040895DC01ED91FC9136970190F081FE
:10088000E02DE80FF91F8DE591E09183808387E6E5
:1008900091E09383828308952DE531E0FC0131835B
:1008A000208327E631E0338322830895FB012081F2
:1008B0003181FC0131832083FB0142815381265029
:1008C0003109F90120813181820F931FFC0151838D
:1008D0004083089529EA31E0FC013183208323EB32
:1008E00031E0358B248B6DE971E00C945604DC010A
:1008F000ED91FC91369720813181820F931F0C94EA
:100900006A0408950895CF93DF93EC010E946A046E
:10091000CE01DF91CF910C942B0BDC01ED91FC917A
:10092000369720813181820F931F0C948304CF93DB
:10093000DF93EC010E942204CE01DF91CF910C9451
:100940002B0BDC01ED91FC91369720813181820FD8
:10095000931F0C9497040C942B0B0C942B0BDC0121
:10096000ED91FC91369720813181820F931F0C9479
:10097000AD040C942B0B0C942B0BDC01ED91FC9132
:10098000369720813181820F931F0C94BB040C9405
:100990002B0B0C942B0BCF93DF93EC018B810E94DC
:1009A000F3009F938F938B811F928F9389EC91E03B
:1009B0009F938F930E94C60B8B810E94F3000F9030
:1009C0000F900F900F900F900F90892B29F481E0DA
:1009D0008883DF91CF9108951882FBCF1F920F92E9
:1009E0000FB60F9211242F933F938F939F93AF9342
:1009F000BF938091E7019091E801A091E901B09146
:100A0000EA013091E60123E0230F2D3758F50196D6
:100A1000A11DB11D2093E6018093E7019093E801A9
:100A2000A093E901B093EA018091E2019091E30182
:100A3000A091E401B091E5010196A11DB11D809343
:100A4000E2019093E301A093E401B093E501BF912B
:100A5000AF919F918F913F912F910F900FBE0F906B
:100A60001F90189526E8230F0296A11DB11DD2CF25
:100A70001F920F920FB60F9211242F933F934F9313
:100A80005F936F937F938F939F93AF93BF93EF93F6
:100A9000FF938FEE91E00E940002FF91EF91BF91D2
:100AA000AF919F918F917F916F915F914F913F9106
:100AB0002F910F900FBE0F901F9018951F920F92BD
:100AC0000FB60F9211242F938F939F93EF93FF9361
:100AD000E091FF01F09100028081E0910502F09128
:100AE000060282FD1BC09081809108028F5F8F7388
:100AF00020910902821741F0E0910802F0E0E151F3
:100B0000FE4F958F80930802FF91EF919F918F91F7
:100B10002F910F900FBE0F901F9018958081F4CFEA
:100B2000CF93DF93EB0188819981ABE3B3E011961A
:100B30009C938E932A813B810697EC01E881F98191
:100B4000E55CFC4F3183208312961D921D921D920D
:100B50001C92159781E290E09483838381E493E073
:100B6000948B838B1582158ADF91CF910895CF9353
:100B7000DF93CBE3D3E081E290E09C8F8B8F1D8EDF
:100B80001E8E1F8E86E090E0A0E0B0E088A399A3BF
:100B9000AAA3BBA31CA21DA21EA21FA283E391E0D5
:100BA000998F888F80E288A71AA619A61DA681E4CE
:100BB00093E09CA78BA7AC0161E871E0CE010E9495
:100BC00090058DE891E09983888387E991E0998F7A
:100BD000888F1A8619861C861B861E861D86188A93
:100BE0001F861A8A198A1C8A1B8A8BE391E09F83CD
:100BF0008E838FEE91E09F8B8E8B88E08D8BDF91C3
:100C0000CF910895DB018D919C91119790931203E0
:100C10008093110312962D913C910697DC01ED9182
:100C2000FC91EF5EFC4F3183208381E290E094835E
:100C3000838383E193E0948B838B1582158A0895D7
:100C4000CF93DF93C1E1D3E081E290E0988F8F8B67
:100C5000198E1A8E1B8E86E090E0A0E0B0E08C8F9B
:100C60009D8FAE8FBF8F18A219A21AA21BA283E379
:100C700091E09D8B8C8B80E28CA31EA21DA219A6F5
:100C800083E193E098A78FA3AC016DE971E0CE01F9
:100C90000E94020689EA91E09983888383EB91E0C0
:100CA0009D8B8C8B1E821D8218861F821A86198648
:100CB0001C861B861E861D86188A1F868BE391E084
:100CC0009B838A838FEE91E09B8B8A8B80E1898B5B
:100CD000DF91CF910895CF93DF93CDB7DEB7CE5795
:100CE000D1090FB6F894DEBF0FBECDBF1092F2014E
:100CF0001092F10188EE93E0A0E0B0E08093F30160
:100D00009093F401A093F501B093F6018BEB91E081
:100D10009093F0018093EF0185EC90E09093FC01BB
:100D20008093FB0184EC90E09093FE018093FD01A1
:100D300080EC90E0909300028093FF0181EC90E0C2
:100D4000909302028093010282EC90E0909304025F
:100D50008093030286EC90E0909306028093050254
:100D6000109208021092090210920A0210920B02CD
:100D70006FEE71E081E193E00E9420066FEE71E07A
:100D80008BE393E00E94B7051092EE011092ED0103
:100D90008FEE91E09093EC018093EB0162EB70E0B9
:100DA0008DE890E00E94280A9093EE018093ED0177
:100DB0001092FC021092FD021092010310920003A7
:100DC0001092030310920203109209031092080379
:100DD0008AE08093FE0281E08093FF0240ED57E0BD
:100DE000509305034093040328EE33E03093070348
:100DF000209306031092EE021092EF021092F3027B
:100E00001092F2021092F5021092F4021092FB027C
:100E10001092FA0283E08093F0028EE08093F10258
:100E20005093F7024093F6023093F9022093F802B0
:100E30001092E0021092E1021092E5021092E40298
:100E40001092E7021092E6021092ED021092EC026C
:100E500094E09093E2029FE09093E3025093E902C2
:100E60004093E8023093EB022093EA021092D20200
:100E70001092D3021092D7021092D6021092D90289
:100E80001092D8021092DF021092DE0295E0909349
:100E9000D40290E19093D5025093DB024093DA02A2
:100EA0003093DD022093DC021092C4021092C5023E
:100EB0001092C9021092C8021092CB021092CA027C
:100EC0001092D1021092D00296E09093C60291E166
:100ED0009093C7025093CD024093CC023093CF023F
:100EE0002093CE021092B6021092B7021092BB026B
:100EF0001092BA021092BD021092BC021092C3026C
:100F00001092C20297E09093B80292E19093B902D6
:100F10005093BF024093BE023093C1022093C0029F
:100F20001092A8021092A9021092AD021092AC0287
:100F30001092AF021092AE021092B5021092B4025B
:100F400098E09093AA0293E19093AB025093B10280
:100F50004093B0023093B3022093B20210929A02EF
:100F600010929B0210929F0210929E021092A10278
:100F70001092A0021092A7021092A60299E09093FC
:100F80009C0210929D025093A3024093A2023093C0
:100F9000A5022093A40210928C0210928D0210924E
:100FA000910210929002109293021092920210926B
:100FB0009902109298029BE090938E0292E0909397
:100FC0008F0250939502409394023093970220939E
:100FD0009602EEEEF2E0DE011196982F01900D924E
:100FE0009A95E1F7E0EEF2E0DE011F96982F01906E
:100FF0000D929A95E1F7E2EDF2E0DE015D96982F11
:1010000001900D929A95E1F7E4ECF2E0DE019B96F7
:10101000982F01900D929A95E1F7E6EBF2E0DE0150
:10102000D996982F01900D929A95E1F7E8EAF2E0AF
:10103000DE01A95BBF4F982F01900D929A95E1F7C1
:10104000EAE9F2E0DE01AB5ABF4F982F01900D9212
:101050009A95E1F7ECEFF2E0DE01AD59BF4F982F22
:1010600001900D929A95E1F7ECE8F2E0DE01AF58BD
:10107000BF4F01900D928A95E1F781E190E0909346
:101080000D0380930C0389E090E090930F0380930D
:101090000E038EEE90E00E948F0A80930A039093D5
:1010A0000B039C01CE010196B90162587F4F2115B7
:1010B000310539F04EE0FC01D90101900D924A95BD
:1010C000E1F7225F3F4F0E966217730781F7C25810
:1010D000DF4F0FB6F894DEBF0FBECDBFDF91CF91CB
:1010E0000895789484B5826084BD84B5816084BDA0
:1010F00085B5826085BD85B5816085BD80916E00B6
:10110000816080936E0010928100809181008260E6
:101110008093810080918100816080938100809123
:1011200080008160809380008091B1008460809312
:10113000B1008091B00081608093B00080917A000E
:10114000846080937A0080917A00826080937A0034
:1011500080917A00816080937A0080917A00806823
:1011600080937A001092C100E091FF01F09100029B
:1011700082E08083E091FB01F091FC011082E0911C
:10118000FD01F091FE018FEC808310920702E09147
:101190000302F091040286E08083E0910102F09165
:1011A0000202808180618083E0910102F09102025D
:1011B000808188608083E0910102F0910202808149
:1011C00080688083E0910102F091020280818F7D2E
:1011D000808362E08EE00E944A0162E08FE00E941C
:1011E0004A0162E080E10E944A0162E081E10E94DE
:1011F0004A0162E082E10E944A0162E083E10E94CA
:101200004A0162E080E00E944A0162E081E00E94BF
:101210004A0162E082E00E944A0161E083E00E94AC
:101220004A0161E084E00E944A0161E085E00E9499
:101230004A0161E086E00E944A0161E087E00E9485
:101240004A0161E088E00E944A0161E089E00E9471
:101250004A0161E08DE00E944A0161E08AE00E945B
:101260004A0161E08BE00E944A0162E08CE00E944A
:101270004A0145E050E068ED71E08FEE91E00E9498
:10128000820142E050E06EED71E08FEE91E00E944D
:10129000820120910E0330910F03B9016150710951
:1012A000E0910A03F0910B0390E080E08617970726
:1012B00000F18EE0D82E00E010E0609100018DE09A
:1012C0000E941C01C0910A03D0910B0380910E0370
:1012D00090910F03D89E7001D99EF00C1124EC0E52
:1012E000FD1EEC16FD06A9F0CE010E94CB042E9641
:1012F000F8CF8217930711F40E94C10B0196821751
:101300009307D0F7AF01425F5F4F55874487FA01DB
:10131000CDCF8CEF92E00E94CB048CE00E94F300D2
:10132000892B09F040C080910E0390910F03892B07
:1013300019F3C0910A03D0910B03898181110FC069
:101340002FB7F8948091E7019091E801A091E9010D
:10135000B091EA012FBF9D838C8381E089838FB791
:10136000F8944091E7015091E8016091E901709192
:10137000EA018FBF8C819D81481B590B610971095E
:1013800088859985B0E0A0E084179507A607B70780
:10139000B0F08981882319F08881882381F061E089
:1013A0008A810E941C010115110509F486CF0E9453
:1013B000EC01882309F481CF0E9400007ECFEC84E9
:1013C000FD84E114F10411F4109200012FB7F89498
:1013D0008091E7019091E801A091E901B091EA01C3
:1013E0002FBF9F838E838FB7F8944091E701509170
:1013F000E8016091E9017091EA018FBF8E819F81C0
:10140000481B590B610971098A859B85B0E0A0E0F2
:10141000481759076A077B0750F461E08A810E94E8
:101420001C0161E0F70182810E941C01DCCF19825E
:1014300060E0B6CF80910A0390910B030E942B0BC2
:101440008BE393E00E94220481E193E00C946A0410
:101450000F931F93CF93DF93009759F46115710594
:1014600041F4F0E0E0E0CF01DF91CF911F910F91C7
:1014700008958B01EC016EE070E081E090E00E9445
:10148000730AFC01892B69F380E883830115110538
:1014900071F01387028781E88383809169039091BB
:1014A0006A03892B21F4F0936A03E0936903209780
:1014B000D1F2D187C08783818260838380916B035F
:1014C00090916C03892B79F6F0936C03E0936B0396
:1014D00080916D0390916E03892B29F6F0936E0332
:1014E000E0936D03C0CF0F931F93CF93DF93869F3D
:1014F0008001879F100D969F100D1124C8010E9436
:101500008F0AEC01009729F0A80170E060E00E94CA
:10151000B40BCE01DF91CF911F910F9108950F93DE
:101520001F93CF93DF938230910510F482E090E017
:10153000E0917103F091720330E020E0B0E0A0E0B0
:10154000309799F42115310509F44AC0281B390B4D
:1015500024303105D8F58A819B816115710589F1A7
:10156000FB0193838283FE0111C04081518102817E
:10157000138148175907E0F04817590799F4109755
:1015800061F012960C93129713961C933296CF012A
:10159000DF91CF911F910F910895009371031093E4
:1015A0007203F4CF2115310551F04217530738F07B
:1015B000A901DB019A01BD01DF01F801C1CFEF01F3
:1015C000F9CF9093720380937103CDCFFE01E20FA8
:1015D000F31F819391932250310939832883D7CF08
:1015E00020916F0330917003232B41F4209103016C
:1015F000309104013093700320936F032091010117
:10160000309102012115310541F42DB73EB74091CB
:10161000050150910601241B350BE0916F03F091F9
:101620007003E217F307A0F42E1B3F0B28173907AE
:1016300078F0AC014E5F5F4F2417350748F04E0F2E
:101640005F1F5093700340936F03819391939FCFDB
:10165000F0E0E0E09CCFCF93DF930097E9F0FC014E
:10166000329713821282A0917103B0917203ED013F
:1016700030E020E01097A1F420813181820F931F88
:1016800020916F03309170032817390709F061C06A
:10169000F0937003E0936F03DF91CF910895EA0117
:1016A000CE17DF07E8F54A815B819E0141155105A0
:1016B000B1F7E901FB83EA8349915991C40FD51F22
:1016C000EC17FD0761F4808191810296840F951FCC
:1016D000E90199838883828193819B838A83F0E0E7
:1016E000E0E012968D919C9113970097B9F52D919A
:1016F0003C911197CD010296820F931F20916F03A9
:10170000309170032817390739F6309751F5109248
:10171000720310927103B0937003A0936F03BCCF58
:10172000D383C28340815181840F951FC817D90785
:1017300061F44E5F5F4F88819981480F591F518333
:1017400040838A819B81938382832115310509F02F
:10175000B0CFF0937203E09371039ECFFD01DC01E3
:10176000C0CF13821282D7CFDC0101C06D934150EC
:101770005040E0F70895EE0FFF1F0590F491E02D23
:10178000099481E090E0F8940C94910EB0E0A0E010
:10179000ECECFBE00C946A0EAE014B5F5F4FFA017C
:1017A00061917191AF0180916B0390916C030E94E4
:1017B000DC0BE2E00C94860EABE0B0E0E2EEFBE086
:1017C0000C945A0E7C013B018A01FC01178216829F
:1017D000838181FFC8C1CE0101965C01F70193812D
:1017E000F30193FD859193FF81913F01882309F4D3
:1017F00053C1853239F493FD859193FF81913F0167
:10180000853229F4B70190E00E94CC0DE7CF912CEE
:10181000212C312CFFE1F31538F08B3211F190F4CB
:10182000803209F1833229F137FC3CC020ED280FCA
:101830002A3050F536FE20C08AE0989E200D1124F3
:10184000922E06C08D3291F0803371F7689430F893
:10185000F30193FD859193FF81913F018111DACFCF
:1018600021C0689431F8689432F8F2CF689433F864
:10187000EFCF689434F8ECCFEAE02E9E200D1124CF
:10188000222E689435F8E4CF8E3229F436FC04C158
:10189000689436F8DDCF8C3619F4689437F8D8CFD1
:1018A0008836B1F2982F9F7D95549330E0F08336BF
:1018B000A1F18337C1F1833509F063C02801F2E05B
:1018C0004F0E511CF801C080D180692D70E036FCAC
:1018D00002C06FEF7FEFC6010E94B60D4C01689405
:1018E00037F882010AC00C5F1F4FFFE3F983882499
:1018F0008394912C6501E89437F833FE2DC0522C67
:101900008114910471F5552009F468CFB70180E284
:1019100090E00E94CC0D5A94F6CFF8018081898323
:101920000E5F1F4FE4CF2801F2E04F0E511CF8016B
:10193000C080D180692D70E036FC02C06FEF7FEF70
:10194000C6010E94C10D4C018201D5CFB70180E2D2
:1019500090E00E94CC0D2A942814190409F0B0F7E5
:10196000CECFF60137FC859137FE81916F01B7012B
:1019700090E00E94CC0D51105A94F1E08F1A91081A
:10198000BFCF843619F0893609F077C0F80137FEE9
:101990006BC060817181828193810C5F1F4FF32D39
:1019A000FF763F2E97FF09C09095809570956195C1
:1019B0007F4F8F4F9F4F689437F82AE030E0A501A2
:1019C0000E94FC0DC82ECA188C2C432C36FE0CC06D
:1019D000E89440F8C91440F434FE05C032FC03C05A
:1019E000F32DFE7E4F2E892C44FE95C0FE01EC0D9A
:1019F000F11D8081803309F087C0242D297E422E7D
:101A0000842D8870582E43FC95C040FE8FC09C2CBE
:101A1000821418F42C0C922C981844FE91C0B70133
:101A200080E390E00E94CC0D42FE09C088E790E080
:101A300041FE02C088E590E0B7010E94CC0DC914B8
:101A400008F48AC0CA94D12C9FEFC91AD90ACA0CCB
:101A5000DB1CF60182916F01B70190E00E94CC0D72
:101A6000AC14BD04B1F74FCF60817181072E000C1B
:101A7000880B990B0E5F1F4F92CFD32CE894D4F8AC
:101A80002AE030E0853739F1232D297FD22E8F3699
:101A900001F148F48835A9F0F701868197812B96EA
:101AA000E2E10C94760E803749F08837A9F7D4FE2E
:101AB00002C06894D2F820E130E00DC06894D4F8F8
:101AC000F6CF34FE03C0822F8660D82E20E132E0AC
:101AD00002C028E030E0F801D7FE0FC060817181BC
:101AE000828193810C5F1F4FA5010E94FC0DC82EBF
:101AF000CA183D2CE89437F867CF6081718190E077
:101B000080E00E5F1F4FF0CF42FC02C0839478CF7D
:101B10008394839475CF842D867809F471CFF6CFA2
:101B2000B70180E290E00E94CC0D83948214C0F350
:101B3000512C73CF522C5818821408F46ECFF8CF62
:101B4000842D867809F47BCF8BE241FE80E247FC4E
:101B50008DE2B70190E071CFB70180E390E00E9481
:101B6000CC0D9A946CCF8FEF9FEF99CFFC0105902D
:101B7000615070400110D8F7809590958E0F9F1F8F
:101B80000895FC016150704001900110D8F78095D4
:101B900090958E0F9F1F08950F931F93CF93DF9300
:101BA000182F092FEB018B8181FD09C01FEF0FEF6B
:101BB000812F902FDF91CF911F910F91089582FF78
:101BC00014C02E813F818C819D81281739073CF4F8
:101BD000E881F981CF0101969983888310838E81F2
:101BE0009F8101969F838E83E3CFE885F985812FBE
:101BF0000995892BA1F3DACFFA01AA27283051F1F0
:101C0000203181F1E8946F936E7F6E5F7F4F8F4F2D
:101C10009F4FAF4FB1E03ED0B4E03CD0670F781F8C
:101C2000891F9A1FA11D680F791F8A1F911DA11D71
:101C30006A0F711D811D911DA11D20D009F46894AA
:101C40003F912AE0269F11243019305D3193DEF652
:101C5000CF010895462F4770405D4193B3E00FD008
:101C6000C9F7F6CF462F4F70405D4A3318F0495DF3
:101C700031FD4052419302D0A9F7EACFB4E0A695D6
:101C80009795879577956795BA95C9F700976105F8
:101C9000710508959B01AC010A2E0694579547954E
:101CA00037952795BA95C9F7620F731F841F951F43
:101CB000A01D08952F923F924F925F926F927F9254
:101CC0008F929F92AF92BF92CF92DF92EF92FF924C
:101CD0000F931F93CF93DF93CDB7DEB7CA1BDB0BF8
:101CE0000FB6F894DEBF0FBECDBF09942A8839889D
:101CF00048885F846E847D848C849B84AA84B984A4
:101D0000C884DF80EE80FD800C811B81AA81B981AF
:101D1000CE0FD11D0FB6F894DEBF0FBECDBFED01C3
:101D2000089510E0C2E6D0E004C0FE010E94BB0BA3
:101D30002196C336D107C9F7F894FFCF010000738D
:101D400003800018000000000000000000E8FFE829
:101D5000FF00000000000014000000000000000070
:101D600000ECFFECFF00000000000000000000811C
:101D700004C704000000003904B904F003ED03EACD
:101D800003E7030903DC03A10388036F038F023019
:101D9000030C030200000000004C04BB04FEFFFE25
:101DA000FF00003A04BD040600000000000404AD7A
:101DB00004FAFFFAFF0000F203AF048D010D0117D2
:101DC00001970118000000000022049704E8FFE8D2
:101DD000FF00002F04A104A90121012B01B301146C
:101DE00000000000006A048304ECFFECFF000077B1
:101DF000048D040000000022028201AF016F02E0A6
:101E000001BE01D20173746174653A202564202DEE
:0E1E1000202564005374617274000D0A0000F6
:107E0000112484B714BE81FFF0D085E080938100F7
:107E100082E08093C00088E18093C10086E0809377
:107E2000C20080E18093C4008EE0C9D0259A86E02C
:107E300020E33CEF91E0309385002093840096BBD3
:107E4000B09BFECF1D9AA8958150A9F7CC24DD24C4
:107E500088248394B5E0AB2EA1E19A2EF3E0BF2EE7
:107E6000A2D0813461F49FD0082FAFD0023811F036
:107E7000013811F484E001C083E08DD089C08234E0
:107E800011F484E103C0853419F485E0A6D080C0E4
:107E9000853579F488D0E82EFF2485D0082F10E0AE
:107EA000102F00270E291F29000F111F8ED06801E7
:107EB0006FC0863521F484E090D080E0DECF843638
:107EC00009F040C070D06FD0082F6DD080E0C81688
:107ED00080E7D80618F4F601B7BEE895C0E0D1E017
:107EE00062D089930C17E1F7F0E0CF16F0E7DF06D8
:107EF00018F0F601B7BEE89568D007B600FCFDCFD4
:107F0000A601A0E0B1E02C9130E011968C91119780
:107F100090E0982F8827822B932B1296FA010C0160
:107F200087BEE89511244E5F5F4FF1E0A038BF0790
:107F300051F7F601A7BEE89507B600FCFDCF97BE46
:107F4000E89526C08437B1F42ED02DD0F82E2BD052
:107F50003CD0F601EF2C8F010F5F1F4F84911BD097
:107F6000EA94F801C1F70894C11CD11CFA94CF0C13
:107F7000D11C0EC0853739F428D08EE10CD085E9AC
:107F80000AD08FE07ACF813511F488E018D01DD067
:107F900080E101D065CF982F8091C00085FFFCCF94
:107FA0009093C60008958091C00087FFFCCF809118
:107FB000C00084FD01C0A8958091C6000895E0E648
:107FC000F0E098E1908380830895EDDF803219F02E
:107FD00088E0F5DFFFCF84E1DECF1F93182FE3DFCA
:107FE0001150E9F7F2DF1F91089580E0E8DFEE27F6
:047FF000FF270994CA
:027FFE00040479
:00000001FF
